{
  "_format": "hh-sol-artifact-1",
  "contractName": "DIREToken",
  "sourceName": "contracts/direnft-old.sol",
  "abi": [
    {
      "inputs": [],
      "stateMutability": "nonpayable",
      "type": "constructor"
    },
    {
      "inputs": [
        {
          "internalType": "address",
          "name": "sender",
          "type": "address"
        },
        {
          "internalType": "uint256",
          "name": "tokenId",
          "type": "uint256"
        },
        {
          "internalType": "address",
          "name": "owner",
          "type": "address"
        }
      ],
      "name": "ERC721IncorrectOwner",
      "type": "error"
    },
    {
      "inputs": [
        {
          "internalType": "address",
          "name": "operator",
          "type": "address"
        },
        {
          "internalType": "uint256",
          "name": "tokenId",
          "type": "uint256"
        }
      ],
      "name": "ERC721InsufficientApproval",
      "type": "error"
    },
    {
      "inputs": [
        {
          "internalType": "address",
          "name": "approver",
          "type": "address"
        }
      ],
      "name": "ERC721InvalidApprover",
      "type": "error"
    },
    {
      "inputs": [
        {
          "internalType": "address",
          "name": "operator",
          "type": "address"
        }
      ],
      "name": "ERC721InvalidOperator",
      "type": "error"
    },
    {
      "inputs": [
        {
          "internalType": "address",
          "name": "owner",
          "type": "address"
        }
      ],
      "name": "ERC721InvalidOwner",
      "type": "error"
    },
    {
      "inputs": [
        {
          "internalType": "address",
          "name": "receiver",
          "type": "address"
        }
      ],
      "name": "ERC721InvalidReceiver",
      "type": "error"
    },
    {
      "inputs": [
        {
          "internalType": "address",
          "name": "sender",
          "type": "address"
        }
      ],
      "name": "ERC721InvalidSender",
      "type": "error"
    },
    {
      "inputs": [
        {
          "internalType": "uint256",
          "name": "tokenId",
          "type": "uint256"
        }
      ],
      "name": "ERC721NonexistentToken",
      "type": "error"
    },
    {
      "anonymous": false,
      "inputs": [
        {
          "indexed": true,
          "internalType": "address",
          "name": "owner",
          "type": "address"
        },
        {
          "indexed": true,
          "internalType": "address",
          "name": "approved",
          "type": "address"
        },
        {
          "indexed": true,
          "internalType": "uint256",
          "name": "tokenId",
          "type": "uint256"
        }
      ],
      "name": "Approval",
      "type": "event"
    },
    {
      "anonymous": false,
      "inputs": [
        {
          "indexed": true,
          "internalType": "address",
          "name": "owner",
          "type": "address"
        },
        {
          "indexed": true,
          "internalType": "address",
          "name": "operator",
          "type": "address"
        },
        {
          "indexed": false,
          "internalType": "bool",
          "name": "approved",
          "type": "bool"
        }
      ],
      "name": "ApprovalForAll",
      "type": "event"
    },
    {
      "anonymous": false,
      "inputs": [
        {
          "indexed": false,
          "internalType": "uint256",
          "name": "_fromTokenId",
          "type": "uint256"
        },
        {
          "indexed": false,
          "internalType": "uint256",
          "name": "_toTokenId",
          "type": "uint256"
        }
      ],
      "name": "BatchMetadataUpdate",
      "type": "event"
    },
    {
      "anonymous": false,
      "inputs": [
        {
          "indexed": false,
          "internalType": "uint256",
          "name": "_tokenId",
          "type": "uint256"
        }
      ],
      "name": "MetadataUpdate",
      "type": "event"
    },
    {
      "anonymous": false,
      "inputs": [
        {
          "indexed": true,
          "internalType": "address",
          "name": "from",
          "type": "address"
        },
        {
          "indexed": true,
          "internalType": "address",
          "name": "to",
          "type": "address"
        },
        {
          "indexed": true,
          "internalType": "uint256",
          "name": "tokenId",
          "type": "uint256"
        }
      ],
      "name": "Transfer",
      "type": "event"
    },
    {
      "inputs": [
        {
          "internalType": "address",
          "name": "to",
          "type": "address"
        },
        {
          "internalType": "uint256",
          "name": "tokenId",
          "type": "uint256"
        }
      ],
      "name": "approve",
      "outputs": [],
      "stateMutability": "nonpayable",
      "type": "function"
    },
    {
      "inputs": [
        {
          "internalType": "address",
          "name": "owner",
          "type": "address"
        }
      ],
      "name": "balanceOf",
      "outputs": [
        {
          "internalType": "uint256",
          "name": "",
          "type": "uint256"
        }
      ],
      "stateMutability": "view",
      "type": "function"
    },
    {
      "inputs": [
        {
          "internalType": "uint256",
          "name": "tokenId",
          "type": "uint256"
        }
      ],
      "name": "getApproved",
      "outputs": [
        {
          "internalType": "address",
          "name": "",
          "type": "address"
        }
      ],
      "stateMutability": "view",
      "type": "function"
    },
    {
      "inputs": [
        {
          "internalType": "address",
          "name": "owner",
          "type": "address"
        },
        {
          "internalType": "address",
          "name": "operator",
          "type": "address"
        }
      ],
      "name": "isApprovedForAll",
      "outputs": [
        {
          "internalType": "bool",
          "name": "",
          "type": "bool"
        }
      ],
      "stateMutability": "view",
      "type": "function"
    },
    {
      "inputs": [
        {
          "internalType": "address",
          "name": "to",
          "type": "address"
        },
        {
          "internalType": "string",
          "name": "tokenURI",
          "type": "string"
        }
      ],
      "name": "mint",
      "outputs": [
        {
          "internalType": "uint256",
          "name": "",
          "type": "uint256"
        }
      ],
      "stateMutability": "nonpayable",
      "type": "function"
    },
    {
      "inputs": [],
      "name": "name",
      "outputs": [
        {
          "internalType": "string",
          "name": "",
          "type": "string"
        }
      ],
      "stateMutability": "view",
      "type": "function"
    },
    {
      "inputs": [
        {
          "internalType": "uint256",
          "name": "tokenId",
          "type": "uint256"
        }
      ],
      "name": "ownerOf",
      "outputs": [
        {
          "internalType": "address",
          "name": "",
          "type": "address"
        }
      ],
      "stateMutability": "view",
      "type": "function"
    },
    {
      "inputs": [
        {
          "internalType": "address",
          "name": "from",
          "type": "address"
        },
        {
          "internalType": "address",
          "name": "to",
          "type": "address"
        },
        {
          "internalType": "uint256",
          "name": "tokenId",
          "type": "uint256"
        }
      ],
      "name": "safeTransferFrom",
      "outputs": [],
      "stateMutability": "nonpayable",
      "type": "function"
    },
    {
      "inputs": [
        {
          "internalType": "address",
          "name": "from",
          "type": "address"
        },
        {
          "internalType": "address",
          "name": "to",
          "type": "address"
        },
        {
          "internalType": "uint256",
          "name": "tokenId",
          "type": "uint256"
        },
        {
          "internalType": "bytes",
          "name": "data",
          "type": "bytes"
        }
      ],
      "name": "safeTransferFrom",
      "outputs": [],
      "stateMutability": "nonpayable",
      "type": "function"
    },
    {
      "inputs": [
        {
          "internalType": "address",
          "name": "operator",
          "type": "address"
        },
        {
          "internalType": "bool",
          "name": "approved",
          "type": "bool"
        }
      ],
      "name": "setApprovalForAll",
      "outputs": [],
      "stateMutability": "nonpayable",
      "type": "function"
    },
    {
      "inputs": [
        {
          "internalType": "bytes4",
          "name": "interfaceId",
          "type": "bytes4"
        }
      ],
      "name": "supportsInterface",
      "outputs": [
        {
          "internalType": "bool",
          "name": "",
          "type": "bool"
        }
      ],
      "stateMutability": "view",
      "type": "function"
    },
    {
      "inputs": [],
      "name": "symbol",
      "outputs": [
        {
          "internalType": "string",
          "name": "",
          "type": "string"
        }
      ],
      "stateMutability": "view",
      "type": "function"
    },
    {
      "inputs": [],
      "name": "tokenCount",
      "outputs": [
        {
          "internalType": "uint256",
          "name": "",
          "type": "uint256"
        }
      ],
      "stateMutability": "view",
      "type": "function"
    },
    {
      "inputs": [
        {
          "internalType": "uint256",
          "name": "tokenId",
          "type": "uint256"
        }
      ],
      "name": "tokenURI",
      "outputs": [
        {
          "internalType": "string",
          "name": "",
          "type": "string"
        }
      ],
      "stateMutability": "view",
      "type": "function"
    },
    {
      "inputs": [
        {
          "internalType": "address",
          "name": "from",
          "type": "address"
        },
        {
          "internalType": "address",
          "name": "to",
          "type": "address"
        },
        {
          "internalType": "uint256",
          "name": "tokenId",
          "type": "uint256"
        }
      ],
      "name": "transferFrom",
      "outputs": [],
      "stateMutability": "nonpayable",
      "type": "function"
    }
  ],
  "bytecode": "0x608060405234801561001057600080fd5b50604051806040016040528060098152602001682224a922aa37b5b2b760b91b815250604051806040016040528060048152602001634449524560e01b815250816000908161005f9190610113565b50600161006c8282610113565b5050506101d1565b634e487b7160e01b600052604160045260246000fd5b600181811c9082168061009e57607f821691505b6020821081036100be57634e487b7160e01b600052602260045260246000fd5b50919050565b601f82111561010e57806000526020600020601f840160051c810160208510156100eb5750805b601f840160051c820191505b8181101561010b57600081556001016100f7565b50505b505050565b81516001600160401b0381111561012c5761012c610074565b6101408161013a845461008a565b846100c4565b6020601f821160018114610174576000831561015c5750848201515b600019600385901b1c1916600184901b17845561010b565b600084815260208120601f198516915b828110156101a45787850151825560209485019460019092019101610184565b50848210156101c25786840151600019600387901b60f8161c191681555b50505050600190811b01905550565b6112e9806101e06000396000f3fe608060405234801561001057600080fd5b50600436106100f55760003560e01c806370a0823111610097578063b88d4fde11610066578063b88d4fde146101f5578063c87b56dd14610208578063d0def5211461021b578063e985e9c51461022e57600080fd5b806370a08231146101b057806395d89b41146101d15780639f181b5e146101d9578063a22cb465146101e257600080fd5b8063095ea7b3116100d3578063095ea7b31461016257806323b872dd1461017757806342842e0e1461018a5780636352211e1461019d57600080fd5b806301ffc9a7146100fa57806306fdde0314610122578063081812fc14610137575b600080fd5b61010d610108366004610db5565b610241565b60405190151581526020015b60405180910390f35b61012a61026c565b6040516101199190610e22565b61014a610145366004610e35565b6102fe565b6040516001600160a01b039091168152602001610119565b610175610170366004610e6a565b610327565b005b610175610185366004610e94565b610336565b610175610198366004610e94565b6103c6565b61014a6101ab366004610e35565b6103e6565b6101c36101be366004610ed1565b6103f1565b604051908152602001610119565b61012a610439565b6101c360075481565b6101756101f0366004610eec565b610448565b610175610203366004610fb8565b610453565b61012a610216366004610e35565b61046b565b6101c3610229366004611034565b61057c565b61010d61023c366004611096565b6105b4565b60006001600160e01b03198216632483248360e11b14806102665750610266826105e2565b92915050565b60606000805461027b906110c9565b80601f01602080910402602001604051908101604052809291908181526020018280546102a7906110c9565b80156102f45780601f106102c9576101008083540402835291602001916102f4565b820191906000526020600020905b8154815290600101906020018083116102d757829003601f168201915b5050505050905090565b600061030982610632565b506000828152600460205260409020546001600160a01b0316610266565b61033282823361066b565b5050565b6001600160a01b03821661036557604051633250574960e11b8152600060048201526024015b60405180910390fd5b6000610372838333610678565b9050836001600160a01b0316816001600160a01b0316146103c0576040516364283d7b60e01b81526001600160a01b038086166004830152602482018490528216604482015260640161035c565b50505050565b6103e183838360405180602001604052806000815250610453565b505050565b600061026682610632565b60006001600160a01b03821661041d576040516322718ad960e21b81526000600482015260240161035c565b506001600160a01b031660009081526003602052604090205490565b60606001805461027b906110c9565b610332338383610771565b61045e848484610336565b6103c03385858585610810565b606061047682610632565b5060008281526006602052604081208054610490906110c9565b80601f01602080910402602001604051908101604052809291908181526020018280546104bc906110c9565b80156105095780601f106104de57610100808354040283529160200191610509565b820191906000526020600020905b8154815290600101906020018083116104ec57829003601f168201915b50505050509050600061052760408051602081019091526000815290565b90508051600003610539575092915050565b81511561056b578082604051602001610553929190611103565b60405160208183030381529060405292505050919050565b6105748461093b565b949350505050565b60006001600760008282546105919190611132565b90915550506007546105a384826109af565b6105ad8184610a14565b9392505050565b6001600160a01b03918216600090815260056020908152604080832093909416825291909152205460ff1690565b60006001600160e01b031982166380ac58cd60e01b148061061357506001600160e01b03198216635b5e139f60e01b145b8061026657506301ffc9a760e01b6001600160e01b0319831614610266565b6000818152600260205260408120546001600160a01b03168061026657604051637e27328960e01b81526004810184905260240161035c565b6103e18383836001610a64565b6000828152600260205260408120546001600160a01b03908116908316156106a5576106a5818486610b6a565b6001600160a01b038116156106e3576106c2600085600080610a64565b6001600160a01b038116600090815260036020526040902080546000190190555b6001600160a01b03851615610712576001600160a01b0385166000908152600360205260409020805460010190555b60008481526002602052604080822080546001600160a01b0319166001600160a01b0389811691821790925591518793918516917fddf252ad1be2c89b69c2b068fc378daa952ba7f163c4a11628f55a4df523b3ef91a4949350505050565b6001600160a01b0382166107a357604051630b61174360e31b81526001600160a01b038316600482015260240161035c565b6001600160a01b03838116600081815260056020908152604080832094871680845294825291829020805460ff191686151590811790915591519182527f17307eab39ab6107e8899845ad3d59bd9653f200f220920489ca2b5937696c31910160405180910390a3505050565b6001600160a01b0383163b1561093457604051630a85bd0160e11b81526001600160a01b0384169063150b7a0290610852908890889087908790600401611153565b6020604051808303816000875af192505050801561088d575060408051601f3d908101601f1916820190925261088a91810190611190565b60015b6108f6573d8080156108bb576040519150601f19603f3d011682016040523d82523d6000602084013e6108c0565b606091505b5080516000036108ee57604051633250574960e11b81526001600160a01b038516600482015260240161035c565b805160208201fd5b6001600160e01b03198116630a85bd0160e11b1461093257604051633250574960e11b81526001600160a01b038516600482015260240161035c565b505b5050505050565b606061094682610632565b50600061095e60408051602081019091526000815290565b9050600081511161097e57604051806020016040528060008152506105ad565b8061098884610bce565b604051602001610999929190611103565b6040516020818303038152906040529392505050565b6001600160a01b0382166109d957604051633250574960e11b81526000600482015260240161035c565b60006109e783836000610678565b90506001600160a01b038116156103e1576040516339e3563760e11b81526000600482015260240161035c565b6000828152600660205260409020610a2c82826111f4565b506040518281527ff8e1a15aba9398e019f0b49df1a4fde98ee17ae345cb5f6b5e2c27f5033e8ce79060200160405180910390a15050565b8080610a7857506001600160a01b03821615155b15610b3a576000610a8884610632565b90506001600160a01b03831615801590610ab45750826001600160a01b0316816001600160a01b031614155b8015610ac75750610ac581846105b4565b155b15610af05760405163a9fbf51f60e01b81526001600160a01b038416600482015260240161035c565b8115610b385783856001600160a01b0316826001600160a01b03167f8c5be1e5ebec7d5bd14f71427d1e84f3dd0314c0f7b2291e5b200ac8c7c3b92560405160405180910390a45b505b5050600090815260046020526040902080546001600160a01b0319166001600160a01b0392909216919091179055565b610b75838383610c61565b6103e1576001600160a01b038316610ba357604051637e27328960e01b81526004810182905260240161035c565b60405163177e802f60e01b81526001600160a01b03831660048201526024810182905260440161035c565b60606000610bdb83610cc4565b600101905060008167ffffffffffffffff811115610bfb57610bfb610f28565b6040519080825280601f01601f191660200182016040528015610c25576020820181803683370190505b5090508181016020015b600019016f181899199a1a9b1b9c1cb0b131b232b360811b600a86061a8153600a8504945084610c2f57509392505050565b60006001600160a01b038316158015906105745750826001600160a01b0316846001600160a01b03161480610c9b5750610c9b84846105b4565b806105745750506000908152600460205260409020546001600160a01b03908116911614919050565b60008072184f03e93ff9f4daa797ed6e38ed64bf6a1f0160401b8310610d035772184f03e93ff9f4daa797ed6e38ed64bf6a1f0160401b830492506040015b6d04ee2d6d415b85acef81000000008310610d2f576d04ee2d6d415b85acef8100000000830492506020015b662386f26fc100008310610d4d57662386f26fc10000830492506010015b6305f5e1008310610d65576305f5e100830492506008015b6127108310610d7957612710830492506004015b60648310610d8b576064830492506002015b600a83106102665760010192915050565b6001600160e01b031981168114610db257600080fd5b50565b600060208284031215610dc757600080fd5b81356105ad81610d9c565b60005b83811015610ded578181015183820152602001610dd5565b50506000910152565b60008151808452610e0e816020860160208601610dd2565b601f01601f19169290920160200192915050565b6020815260006105ad6020830184610df6565b600060208284031215610e4757600080fd5b5035919050565b80356001600160a01b0381168114610e6557600080fd5b919050565b60008060408385031215610e7d57600080fd5b610e8683610e4e565b946020939093013593505050565b600080600060608486031215610ea957600080fd5b610eb284610e4e565b9250610ec060208501610e4e565b929592945050506040919091013590565b600060208284031215610ee357600080fd5b6105ad82610e4e565b60008060408385031215610eff57600080fd5b610f0883610e4e565b915060208301358015158114610f1d57600080fd5b809150509250929050565b634e487b7160e01b600052604160045260246000fd5b60008067ffffffffffffffff841115610f5957610f59610f28565b50604051601f19601f85018116603f0116810181811067ffffffffffffffff82111715610f8857610f88610f28565b604052838152905080828401851015610fa057600080fd5b83836020830137600060208583010152509392505050565b60008060008060808587031215610fce57600080fd5b610fd785610e4e565b9350610fe560208601610e4e565b925060408501359150606085013567ffffffffffffffff81111561100857600080fd5b8501601f8101871361101957600080fd5b61102887823560208401610f3e565b91505092959194509250565b6000806040838503121561104757600080fd5b61105083610e4e565b9150602083013567ffffffffffffffff81111561106c57600080fd5b8301601f8101851361107d57600080fd5b61108c85823560208401610f3e565b9150509250929050565b600080604083850312156110a957600080fd5b6110b283610e4e565b91506110c060208401610e4e565b90509250929050565b600181811c908216806110dd57607f821691505b6020821081036110fd57634e487b7160e01b600052602260045260246000fd5b50919050565b60008351611115818460208801610dd2565b835190830190611129818360208801610dd2565b01949350505050565b8082018082111561026657634e487b7160e01b600052601160045260246000fd5b6001600160a01b038581168252841660208201526040810183905260806060820181905260009061118690830184610df6565b9695505050505050565b6000602082840312156111a257600080fd5b81516105ad81610d9c565b601f8211156103e157806000526020600020601f840160051c810160208510156111d45750805b601f840160051c820191505b8181101561093457600081556001016111e0565b815167ffffffffffffffff81111561120e5761120e610f28565b6112228161121c84546110c9565b846111ad565b6020601f821160018114611256576000831561123e5750848201515b600019600385901b1c1916600184901b178455610934565b600084815260208120601f198516915b828110156112865787850151825560209485019460019092019101611266565b50848210156112a45786840151600019600387901b60f8161c191681555b50505050600190811b0190555056fea2646970667358221220ee92d7a58a3242a76a4ac3b3e5cd4971a700847a29147533cb800773b7b8271464736f6c634300081c0033",
  "linkReferences": {},
  "deployedLinkReferences": {}
}